{
  "_format": "hh-sol-artifact-1",
  "contractName": "BitcoinPricePrediction",
  "sourceName": "contracts/BitcoinPricePrediction.sol",
  "abi": [
    {
      "inputs": [
        {
          "internalType": "address",
          "name": "_priceFeedAddress",
          "type": "address"
        }
      ],
      "stateMutability": "nonpayable",
      "type": "constructor"
    },
    {
      "inputs": [
        {
          "internalType": "address",
          "name": "owner",
          "type": "address"
        }
      ],
      "name": "OwnableInvalidOwner",
      "type": "error"
    },
    {
      "inputs": [
        {
          "internalType": "address",
          "name": "account",
          "type": "address"
        }
      ],
      "name": "OwnableUnauthorizedAccount",
      "type": "error"
    },
    {
      "inputs": [],
      "name": "ReentrancyGuardReentrantCall",
      "type": "error"
    },
    {
      "anonymous": false,
      "inputs": [
        {
          "indexed": false,
          "internalType": "address",
          "name": "user",
          "type": "address"
        },
        {
          "indexed": false,
          "internalType": "uint256",
          "name": "roundId",
          "type": "uint256"
        },
        {
          "indexed": false,
          "internalType": "uint256",
          "name": "amount",
          "type": "uint256"
        },
        {
          "indexed": false,
          "internalType": "bool",
          "name": "isUp",
          "type": "bool"
        }
      ],
      "name": "BetPlaced",
      "type": "event"
    },
    {
      "anonymous": false,
      "inputs": [
        {
          "indexed": true,
          "internalType": "address",
          "name": "previousOwner",
          "type": "address"
        },
        {
          "indexed": true,
          "internalType": "address",
          "name": "newOwner",
          "type": "address"
        }
      ],
      "name": "OwnershipTransferred",
      "type": "event"
    },
    {
      "anonymous": false,
      "inputs": [
        {
          "indexed": false,
          "internalType": "uint256",
          "name": "newBalance",
          "type": "uint256"
        },
        {
          "indexed": false,
          "internalType": "bool",
          "name": "isDeposit",
          "type": "bool"
        }
      ],
      "name": "PoolUpdated",
      "type": "event"
    },
    {
      "anonymous": false,
      "inputs": [
        {
          "indexed": false,
          "internalType": "address",
          "name": "user",
          "type": "address"
        },
        {
          "indexed": false,
          "internalType": "uint256",
          "name": "amount",
          "type": "uint256"
        }
      ],
      "name": "RewardClaimed",
      "type": "event"
    },
    {
      "anonymous": false,
      "inputs": [
        {
          "indexed": false,
          "internalType": "uint256",
          "name": "roundId",
          "type": "uint256"
        },
        {
          "indexed": false,
          "internalType": "uint256",
          "name": "endTime",
          "type": "uint256"
        },
        {
          "indexed": false,
          "internalType": "uint256",
          "name": "endPrice",
          "type": "uint256"
        },
        {
          "indexed": false,
          "internalType": "bool",
          "name": "isUp",
          "type": "bool"
        }
      ],
      "name": "RoundFinalized",
      "type": "event"
    },
    {
      "anonymous": false,
      "inputs": [
        {
          "indexed": false,
          "internalType": "uint256",
          "name": "roundId",
          "type": "uint256"
        },
        {
          "indexed": false,
          "internalType": "uint256",
          "name": "startTime",
          "type": "uint256"
        },
        {
          "indexed": false,
          "internalType": "uint256",
          "name": "startPrice",
          "type": "uint256"
        }
      ],
      "name": "RoundStarted",
      "type": "event"
    },
    {
      "inputs": [],
      "name": "MAX_PRICE_AGE",
      "outputs": [
        {
          "internalType": "uint256",
          "name": "",
          "type": "uint256"
        }
      ],
      "stateMutability": "view",
      "type": "function"
    },
    {
      "inputs": [],
      "name": "ROUND_DURATION",
      "outputs": [
        {
          "internalType": "uint256",
          "name": "",
          "type": "uint256"
        }
      ],
      "stateMutability": "view",
      "type": "function"
    },
    {
      "inputs": [
        {
          "internalType": "uint256",
          "name": "",
          "type": "uint256"
        },
        {
          "internalType": "uint256",
          "name": "",
          "type": "uint256"
        }
      ],
      "name": "bets",
      "outputs": [
        {
          "internalType": "address",
          "name": "user",
          "type": "address"
        },
        {
          "internalType": "uint256",
          "name": "amount",
          "type": "uint256"
        },
        {
          "internalType": "bool",
          "name": "isUp",
          "type": "bool"
        },
        {
          "internalType": "uint256",
          "name": "round",
          "type": "uint256"
        }
      ],
      "stateMutability": "view",
      "type": "function"
    },
    {
      "inputs": [],
      "name": "claimRewards",
      "outputs": [],
      "stateMutability": "nonpayable",
      "type": "function"
    },
    {
      "inputs": [],
      "name": "currentRoundId",
      "outputs": [
        {
          "internalType": "uint256",
          "name": "",
          "type": "uint256"
        }
      ],
      "stateMutability": "view",
      "type": "function"
    },
    {
      "inputs": [],
      "name": "depositToPool",
      "outputs": [],
      "stateMutability": "payable",
      "type": "function"
    },
    {
      "inputs": [],
      "name": "getCurrentRound",
      "outputs": [
        {
          "components": [
            {
              "internalType": "uint256",
              "name": "startTime",
              "type": "uint256"
            },
            {
              "internalType": "uint256",
              "name": "endTime",
              "type": "uint256"
            },
            {
              "internalType": "uint256",
              "name": "startPrice",
              "type": "uint256"
            },
            {
              "internalType": "uint256",
              "name": "endPrice",
              "type": "uint256"
            },
            {
              "internalType": "bool",
              "name": "isUp",
              "type": "bool"
            },
            {
              "internalType": "bool",
              "name": "finalized",
              "type": "bool"
            }
          ],
          "internalType": "struct BitcoinPricePrediction.Round",
          "name": "",
          "type": "tuple"
        }
      ],
      "stateMutability": "view",
      "type": "function"
    },
    {
      "inputs": [],
      "name": "getLatestPrice",
      "outputs": [
        {
          "internalType": "uint256",
          "name": "",
          "type": "uint256"
        }
      ],
      "stateMutability": "view",
      "type": "function"
    },
    {
      "inputs": [
        {
          "internalType": "uint256",
          "name": "_roundId",
          "type": "uint256"
        },
        {
          "internalType": "address",
          "name": "_user",
          "type": "address"
        }
      ],
      "name": "getUserBets",
      "outputs": [
        {
          "components": [
            {
              "internalType": "address",
              "name": "user",
              "type": "address"
            },
            {
              "internalType": "uint256",
              "name": "amount",
              "type": "uint256"
            },
            {
              "internalType": "bool",
              "name": "isUp",
              "type": "bool"
            },
            {
              "internalType": "uint256",
              "name": "round",
              "type": "uint256"
            }
          ],
          "internalType": "struct BitcoinPricePrediction.Bet[]",
          "name": "",
          "type": "tuple[]"
        }
      ],
      "stateMutability": "view",
      "type": "function"
    },
    {
      "inputs": [],
      "name": "owner",
      "outputs": [
        {
          "internalType": "address",
          "name": "",
          "type": "address"
        }
      ],
      "stateMutability": "view",
      "type": "function"
    },
    {
      "inputs": [
        {
          "internalType": "address",
          "name": "",
          "type": "address"
        }
      ],
      "name": "pendingRewards",
      "outputs": [
        {
          "internalType": "uint256",
          "name": "",
          "type": "uint256"
        }
      ],
      "stateMutability": "view",
      "type": "function"
    },
    {
      "inputs": [
        {
          "internalType": "bool",
          "name": "_isUp",
          "type": "bool"
        }
      ],
      "name": "placeBet",
      "outputs": [],
      "stateMutability": "payable",
      "type": "function"
    },
    {
      "inputs": [],
      "name": "poolBalance",
      "outputs": [
        {
          "internalType": "uint256",
          "name": "",
          "type": "uint256"
        }
      ],
      "stateMutability": "view",
      "type": "function"
    },
    {
      "inputs": [],
      "name": "priceFeed",
      "outputs": [
        {
          "internalType": "contract IPriceFeed",
          "name": "",
          "type": "address"
        }
      ],
      "stateMutability": "view",
      "type": "function"
    },
    {
      "inputs": [],
      "name": "renounceOwnership",
      "outputs": [],
      "stateMutability": "nonpayable",
      "type": "function"
    },
    {
      "inputs": [
        {
          "internalType": "uint256",
          "name": "",
          "type": "uint256"
        }
      ],
      "name": "rounds",
      "outputs": [
        {
          "internalType": "uint256",
          "name": "startTime",
          "type": "uint256"
        },
        {
          "internalType": "uint256",
          "name": "endTime",
          "type": "uint256"
        },
        {
          "internalType": "uint256",
          "name": "startPrice",
          "type": "uint256"
        },
        {
          "internalType": "uint256",
          "name": "endPrice",
          "type": "uint256"
        },
        {
          "internalType": "bool",
          "name": "isUp",
          "type": "bool"
        },
        {
          "internalType": "bool",
          "name": "finalized",
          "type": "bool"
        }
      ],
      "stateMutability": "view",
      "type": "function"
    },
    {
      "inputs": [],
      "name": "startNewRound",
      "outputs": [],
      "stateMutability": "nonpayable",
      "type": "function"
    },
    {
      "inputs": [
        {
          "internalType": "address",
          "name": "newOwner",
          "type": "address"
        }
      ],
      "name": "transferOwnership",
      "outputs": [],
      "stateMutability": "nonpayable",
      "type": "function"
    },
    {
      "inputs": [
        {
          "internalType": "uint256",
          "name": "_amount",
          "type": "uint256"
        }
      ],
      "name": "withdrawFromPool",
      "outputs": [],
      "stateMutability": "nonpayable",
      "type": "function"
    },
    {
      "stateMutability": "payable",
      "type": "receive"
    }
  ],
  "bytecode": "0x60a06040523480156200001157600080fd5b5060405162002fc338038062002fc3833981810160405281019062000037919062000454565b33600073ffffffffffffffffffffffffffffffffffffffff168173ffffffffffffffffffffffffffffffffffffffff1603620000ad5760006040517f1e4fbdf7000000000000000000000000000000000000000000000000000000008152600401620000a4919062000497565b60405180910390fd5b620000be816200032660201b60201c565b50600180819055508073ffffffffffffffffffffffffffffffffffffffff1660808173ffffffffffffffffffffffffffffffffffffffff1681525050600160028190555060008060805173ffffffffffffffffffffffffffffffffffffffff1663feaf968c6040518163ffffffff1660e01b815260040160a060405180830381865afa15801562000153573d6000803e3d6000fd5b505050506040513d601f19601f8201168201806040525081019062000179919062000571565b5093505092505060008213620001c6576040517f08c379a0000000000000000000000000000000000000000000000000000000008152600401620001bd906200065a565b60405180910390fd5b61070881620001d69190620006ab565b4211156200021b576040517f08c379a0000000000000000000000000000000000000000000000000000000008152600401620002129062000736565b60405180910390fd5b6040518060c00160405280428152602001610384426200023c9190620006ab565b815260200183815260200160008152602001600015158152602001600015158152506003600060025481526020019081526020016000206000820151816000015560208201518160010155604082015181600201556060820151816003015560808201518160040160006101000a81548160ff02191690831515021790555060a08201518160040160016101000a81548160ff0219169083151502179055509050507fa359b664a68acd8839e42112eb50eff3408165e15074fde89ddb58a0db2e691d6002544284604051620003159392919062000769565b60405180910390a1505050620007a6565b60008060009054906101000a900473ffffffffffffffffffffffffffffffffffffffff169050816000806101000a81548173ffffffffffffffffffffffffffffffffffffffff021916908373ffffffffffffffffffffffffffffffffffffffff1602179055508173ffffffffffffffffffffffffffffffffffffffff168173ffffffffffffffffffffffffffffffffffffffff167f8be0079c531659141344cd1fd0a4f28419497f9722a3daafe3b4186f6b6457e060405160405180910390a35050565b600080fd5b600073ffffffffffffffffffffffffffffffffffffffff82169050919050565b60006200041c82620003ef565b9050919050565b6200042e816200040f565b81146200043a57600080fd5b50565b6000815190506200044e8162000423565b92915050565b6000602082840312156200046d576200046c620003ea565b5b60006200047d848285016200043d565b91505092915050565b62000491816200040f565b82525050565b6000602082019050620004ae600083018462000486565b92915050565b600069ffffffffffffffffffff82169050919050565b620004d581620004b4565b8114620004e157600080fd5b50565b600081519050620004f581620004ca565b92915050565b6000819050919050565b6200051081620004fb565b81146200051c57600080fd5b50565b600081519050620005308162000505565b92915050565b6000819050919050565b6200054b8162000536565b81146200055757600080fd5b50565b6000815190506200056b8162000540565b92915050565b600080600080600060a0868803121562000590576200058f620003ea565b5b6000620005a088828901620004e4565b9550506020620005b3888289016200051f565b9450506040620005c6888289016200055a565b9350506060620005d9888289016200055a565b9250506080620005ec88828901620004e4565b9150509295509295909350565b600082825260208201905092915050565b7f496e76616c696420707269636520666565640000000000000000000000000000600082015250565b600062000642601283620005f9565b91506200064f826200060a565b602082019050919050565b60006020820190508181036000830152620006758162000633565b9050919050565b7f4e487b7100000000000000000000000000000000000000000000000000000000600052601160045260246000fd5b6000620006b88262000536565b9150620006c58362000536565b9250828201905080821115620006e057620006df6200067c565b5b92915050565b7f5072696365206665656420746f6f206f6c640000000000000000000000000000600082015250565b60006200071e601283620005f9565b91506200072b82620006e6565b602082019050919050565b6000602082019050818103600083015262000751816200070f565b9050919050565b620007638162000536565b82525050565b600060608201905062000780600083018662000758565b6200078f602083018562000758565b6200079e604083018462000758565b949350505050565b6080516127ec620007d760003960008181610a5601528181610afe01528181610d890152610f7001526127ec6000f3fe6080604052600436106101185760003560e01c80638da5cb5b116100a0578063a32bf59711610064578063a32bf59714610383578063bd85948c146103ae578063f2fde38b146103c5578063f9faa104146103ee578063fa744dd3146103f85761011f565b80638da5cb5b146102ac5780638e15f473146102d757806396365d44146103025780639cbe5efd1461032d5780639d7f7e86146103585761011f565b80636641ea08116100e75780636641ea08146101bd5780636a09f6be146101e8578063715018a614610228578063741bef1a1461023f5780638c65c81f1461026a5761011f565b8063096a37781461012457806330fc43ed1461014057806331d7a26214610169578063372500ab146101a65761011f565b3661011f57005b600080fd5b61013e600480360381019061013991906119da565b610435565b005b34801561014c57600080fd5b5061016760048036038101906101629190611a3d565b6106c7565b005b34801561017557600080fd5b50610190600480360381019061018b9190611ac8565b610806565b60405161019d9190611b04565b60405180910390f35b3480156101b257600080fd5b506101bb61081e565b005b3480156101c957600080fd5b506101d26109c0565b6040516101df9190611b04565b60405180910390f35b3480156101f457600080fd5b5061020f600480360381019061020a9190611b1f565b6109c6565b60405161021f9493929190611b7d565b60405180910390f35b34801561023457600080fd5b5061023d610a40565b005b34801561024b57600080fd5b50610254610a54565b6040516102619190611c21565b60405180910390f35b34801561027657600080fd5b50610291600480360381019061028c9190611a3d565b610a78565b6040516102a396959493929190611c3c565b60405180910390f35b3480156102b857600080fd5b506102c1610ace565b6040516102ce9190611c9d565b60405180910390f35b3480156102e357600080fd5b506102ec610af7565b6040516102f99190611b04565b60405180910390f35b34801561030e57600080fd5b50610317610c2d565b6040516103249190611b04565b60405180910390f35b34801561033957600080fd5b50610342610c33565b60405161034f9190611b04565b60405180910390f35b34801561036457600080fd5b5061036d610c39565b60405161037a9190611b04565b60405180910390f35b34801561038f57600080fd5b50610398610c3f565b6040516103a59190611d51565b60405180910390f35b3480156103ba57600080fd5b506103c3610cca565b005b3480156103d157600080fd5b506103ec60048036038101906103e79190611ac8565b6111a4565b005b6103f661122a565b005b34801561040457600080fd5b5061041f600480360381019061041a9190611d6c565b6112cc565b60405161042c9190611ebf565b60405180910390f35b61043d61156d565b60003411610480576040517f08c379a000000000000000000000000000000000000000000000000000000000815260040161047790611f64565b60405180910390fd5b60006003600060025481526020019081526020016000209050806001015442106104df576040517f08c379a00000000000000000000000000000000000000000000000000000000081526004016104d690611fd0565b60405180910390fd5b8060040160019054906101000a900460ff1615610531576040517f08c379a00000000000000000000000000000000000000000000000000000000081526004016105289061203c565b60405180910390fd5b3460066000828254610543919061208b565b9250508190555060046000600254815260200190815260200160002060405180608001604052803373ffffffffffffffffffffffffffffffffffffffff1681526020013481526020018415158152602001600254815250908060018154018082558091505060019003906000526020600020906004020160009091909190915060008201518160000160006101000a81548173ffffffffffffffffffffffffffffffffffffffff021916908373ffffffffffffffffffffffffffffffffffffffff1602179055506020820151816001015560408201518160020160006101000a81548160ff0219169083151502179055506060820151816003015550507feecad545a2ea4b549fd96ca809f2218e8daec7f3214b4813f4cddbc406ea803e33600254348560405161067794939291906120bf565b60405180910390a17f8f4bed4cb4686b1e2f5da30b74ca4c01e07f9bb2ce000ef2c751293278aeffa560065460016040516106b3929190612104565b60405180910390a1506106c46115b3565b50565b6106cf6115bc565b6106d761156d565b60065481111561071c576040517f08c379a000000000000000000000000000000000000000000000000000000000815260040161071390612179565b60405180910390fd5b8047101561075f576040517f08c379a0000000000000000000000000000000000000000000000000000000008152600401610756906121e5565b60405180910390fd5b80600660008282546107719190612205565b925050819055503373ffffffffffffffffffffffffffffffffffffffff166108fc829081150290604051600060405180830381858888f193505050501580156107be573d6000803e3d6000fd5b507f8f4bed4cb4686b1e2f5da30b74ca4c01e07f9bb2ce000ef2c751293278aeffa560065460006040516107f3929190612104565b60405180910390a16108036115b3565b50565b60056020528060005260406000206000915090505481565b61082661156d565b6000600560003373ffffffffffffffffffffffffffffffffffffffff1673ffffffffffffffffffffffffffffffffffffffff168152602001908152602001600020549050600081116108ad576040517f08c379a00000000000000000000000000000000000000000000000000000000081526004016108a490612285565b60405180910390fd5b804710156108f0576040517f08c379a00000000000000000000000000000000000000000000000000000000081526004016108e7906121e5565b60405180910390fd5b6000600560003373ffffffffffffffffffffffffffffffffffffffff1673ffffffffffffffffffffffffffffffffffffffff168152602001908152602001600020819055503373ffffffffffffffffffffffffffffffffffffffff166108fc829081150290604051600060405180830381858888f1935050505015801561097b573d6000803e3d6000fd5b507f106f923f993c2149d49b4255ff723acafa1f2d94393f561d3eda32ae348f724133826040516109ad9291906122a5565b60405180910390a1506109be6115b3565b565b61038481565b600460205281600052604060002081815481106109e257600080fd5b9060005260206000209060040201600091509150508060000160009054906101000a900473ffffffffffffffffffffffffffffffffffffffff16908060010154908060020160009054906101000a900460ff16908060030154905084565b610a486115bc565b610a526000611643565b565b7f000000000000000000000000000000000000000000000000000000000000000081565b60036020528060005260406000206000915090508060000154908060010154908060020154908060030154908060040160009054906101000a900460ff16908060040160019054906101000a900460ff16905086565b60008060009054906101000a900473ffffffffffffffffffffffffffffffffffffffff16905090565b60008060007f000000000000000000000000000000000000000000000000000000000000000073ffffffffffffffffffffffffffffffffffffffff1663feaf968c6040518163ffffffff1660e01b815260040160a060405180830381865afa158015610b67573d6000803e3d6000fd5b505050506040513d601f19601f82011682018060405250810190610b8b919061235b565b5093505092505060008213610bd5576040517f08c379a0000000000000000000000000000000000000000000000000000000008152600401610bcc90612422565b60405180910390fd5b61070881610be3919061208b565b421115610c25576040517f08c379a0000000000000000000000000000000000000000000000000000000008152600401610c1c9061248e565b60405180910390fd5b819250505090565b60065481565b60025481565b61070881565b610c47611923565b6003600060025481526020019081526020016000206040518060c0016040529081600082015481526020016001820154815260200160028201548152602001600382015481526020016004820160009054906101000a900460ff161515151581526020016004820160019054906101000a900460ff161515151581525050905090565b610cd261156d565b600060036000600254815260200190815260200160002090508060010154421015610d32576040517f08c379a0000000000000000000000000000000000000000000000000000000008152600401610d29906124fa565b60405180910390fd5b8060040160019054906101000a900460ff1615610d84576040517f08c379a0000000000000000000000000000000000000000000000000000000008152600401610d7b90612566565b60405180910390fd5b6000807f000000000000000000000000000000000000000000000000000000000000000073ffffffffffffffffffffffffffffffffffffffff1663feaf968c6040518163ffffffff1660e01b815260040160a060405180830381865afa158015610df2573d6000803e3d6000fd5b505050506040513d601f19601f82011682018060405250810190610e16919061235b565b5093505092505060008213610e60576040517f08c379a0000000000000000000000000000000000000000000000000000000008152600401610e5790612422565b60405180910390fd5b61070881610e6e919061208b565b421115610eb0576040517f08c379a0000000000000000000000000000000000000000000000000000000008152600401610ea79061248e565b60405180910390fd5b818360030181905550826002015482118360040160006101000a81548160ff02191690831515021790555060018360040160016101000a81548160ff021916908315150217905550610f03600254611707565b7f8287198ee1278e57d6757ad00292b58fe127cc5f1799a3f3ea09e27f2cc681d660025442848660040160009054906101000a900460ff16604051610f4b9493929190612586565b60405180910390a160026000815480929190610f66906125cb565b91905055506000807f000000000000000000000000000000000000000000000000000000000000000073ffffffffffffffffffffffffffffffffffffffff1663feaf968c6040518163ffffffff1660e01b815260040160a060405180830381865afa158015610fd9573d6000803e3d6000fd5b505050506040513d601f19601f82011682018060405250810190610ffd919061235b565b5093505092505060008213611047576040517f08c379a000000000000000000000000000000000000000000000000000000000815260040161103e90612422565b60405180910390fd5b61070881611055919061208b565b421115611097576040517f08c379a000000000000000000000000000000000000000000000000000000000815260040161108e9061248e565b60405180910390fd5b6040518060c00160405280428152602001610384426110b6919061208b565b815260200183815260200160008152602001600015158152602001600015158152506003600060025481526020019081526020016000206000820151816000015560208201518160010155604082015181600201556060820151816003015560808201518160040160006101000a81548160ff02191690831515021790555060a08201518160040160016101000a81548160ff0219169083151502179055509050507fa359b664a68acd8839e42112eb50eff3408165e15074fde89ddb58a0db2e691d600254428460405161118d93929190612613565b60405180910390a150505050506111a26115b3565b565b6111ac6115bc565b600073ffffffffffffffffffffffffffffffffffffffff168173ffffffffffffffffffffffffffffffffffffffff160361121e5760006040517f1e4fbdf70000000000000000000000000000000000000000000000000000000081526004016112159190611c9d565b60405180910390fd5b61122781611643565b50565b6112326115bc565b60003411611275576040517f08c379a000000000000000000000000000000000000000000000000000000000815260040161126c90612696565b60405180910390fd5b3460066000828254611287919061208b565b925050819055507f8f4bed4cb4686b1e2f5da30b74ca4c01e07f9bb2ce000ef2c751293278aeffa560065460016040516112c2929190612104565b60405180910390a1565b606060006004600085815260200190815260200160002090506000805b828054905081101561138e578473ffffffffffffffffffffffffffffffffffffffff1683828154811061131f5761131e6126b6565b5b906000526020600020906004020160000160009054906101000a900473ffffffffffffffffffffffffffffffffffffffff1673ffffffffffffffffffffffffffffffffffffffff160361137b578180611377906125cb565b9250505b8080611386906125cb565b9150506112e9565b5060008167ffffffffffffffff8111156113ab576113aa6126e5565b5b6040519080825280602002602001820160405280156113e457816020015b6113d161195d565b8152602001906001900390816113c95790505b5090506000805b848054905081101561155f578673ffffffffffffffffffffffffffffffffffffffff16858281548110611421576114206126b6565b5b906000526020600020906004020160000160009054906101000a900473ffffffffffffffffffffffffffffffffffffffff1673ffffffffffffffffffffffffffffffffffffffff160361154c57848181548110611481576114806126b6565b5b90600052602060002090600402016040518060800160405290816000820160009054906101000a900473ffffffffffffffffffffffffffffffffffffffff1673ffffffffffffffffffffffffffffffffffffffff1673ffffffffffffffffffffffffffffffffffffffff168152602001600182015481526020016002820160009054906101000a900460ff16151515158152602001600382015481525050838381518110611532576115316126b6565b5b60200260200101819052508180611548906125cb565b9250505b8080611557906125cb565b9150506113eb565b508194505050505092915050565b6002600154036115a9576040517f3ee5aeb500000000000000000000000000000000000000000000000000000000815260040160405180910390fd5b6002600181905550565b60018081905550565b6115c461191b565b73ffffffffffffffffffffffffffffffffffffffff166115e2610ace565b73ffffffffffffffffffffffffffffffffffffffff16146116415761160561191b565b6040517f118cdaa70000000000000000000000000000000000000000000000000000000081526004016116389190611c9d565b60405180910390fd5b565b60008060009054906101000a900473ffffffffffffffffffffffffffffffffffffffff169050816000806101000a81548173ffffffffffffffffffffffffffffffffffffffff021916908373ffffffffffffffffffffffffffffffffffffffff1602179055508173ffffffffffffffffffffffffffffffffffffffff168173ffffffffffffffffffffffffffffffffffffffff167f8be0079c531659141344cd1fd0a4f28419497f9722a3daafe3b4186f6b6457e060405160405180910390a35050565b60006003600083815260200190815260200160002090506000600460008481526020019081526020016000209050600080600654905060005b83805490508110156117df578460040160009054906101000a900460ff161515848281548110611773576117726126b6565b5b906000526020600020906004020160020160009054906101000a900460ff161515036117cc578381815481106117ac576117ab6126b6565b5b906000526020600020906004020160010154836117c9919061208b565b92505b80806117d7906125cb565b915050611740565b5060008211156119145760005b838054905081101561191257600084828154811061180d5761180c6126b6565b5b906000526020600020906004020190508560040160009054906101000a900460ff1615158160020160009054906101000a900460ff161515036118fe5760008484836001015461185d9190612714565b6118679190612785565b905080600560008460000160009054906101000a900473ffffffffffffffffffffffffffffffffffffffff1673ffffffffffffffffffffffffffffffffffffffff1673ffffffffffffffffffffffffffffffffffffffff16815260200190815260200160002060008282546118dc919061208b565b9250508190555080600660008282546118f59190612205565b92505081905550505b50808061190a906125cb565b9150506117ec565b505b5050505050565b600033905090565b6040518060c00160405280600081526020016000815260200160008152602001600081526020016000151581526020016000151581525090565b6040518060800160405280600073ffffffffffffffffffffffffffffffffffffffff16815260200160008152602001600015158152602001600081525090565b600080fd5b60008115159050919050565b6119b7816119a2565b81146119c257600080fd5b50565b6000813590506119d4816119ae565b92915050565b6000602082840312156119f0576119ef61199d565b5b60006119fe848285016119c5565b91505092915050565b6000819050919050565b611a1a81611a07565b8114611a2557600080fd5b50565b600081359050611a3781611a11565b92915050565b600060208284031215611a5357611a5261199d565b5b6000611a6184828501611a28565b91505092915050565b600073ffffffffffffffffffffffffffffffffffffffff82169050919050565b6000611a9582611a6a565b9050919050565b611aa581611a8a565b8114611ab057600080fd5b50565b600081359050611ac281611a9c565b92915050565b600060208284031215611ade57611add61199d565b5b6000611aec84828501611ab3565b91505092915050565b611afe81611a07565b82525050565b6000602082019050611b196000830184611af5565b92915050565b60008060408385031215611b3657611b3561199d565b5b6000611b4485828601611a28565b9250506020611b5585828601611a28565b9150509250929050565b611b6881611a8a565b82525050565b611b77816119a2565b82525050565b6000608082019050611b926000830187611b5f565b611b9f6020830186611af5565b611bac6040830185611b6e565b611bb96060830184611af5565b95945050505050565b6000819050919050565b6000611be7611be2611bdd84611a6a565b611bc2565b611a6a565b9050919050565b6000611bf982611bcc565b9050919050565b6000611c0b82611bee565b9050919050565b611c1b81611c00565b82525050565b6000602082019050611c366000830184611c12565b92915050565b600060c082019050611c516000830189611af5565b611c5e6020830188611af5565b611c6b6040830187611af5565b611c786060830186611af5565b611c856080830185611b6e565b611c9260a0830184611b6e565b979650505050505050565b6000602082019050611cb26000830184611b5f565b92915050565b611cc181611a07565b82525050565b611cd0816119a2565b82525050565b60c082016000820151611cec6000850182611cb8565b506020820151611cff6020850182611cb8565b506040820151611d126040850182611cb8565b506060820151611d256060850182611cb8565b506080820151611d386080850182611cc7565b5060a0820151611d4b60a0850182611cc7565b50505050565b600060c082019050611d666000830184611cd6565b92915050565b60008060408385031215611d8357611d8261199d565b5b6000611d9185828601611a28565b9250506020611da285828601611ab3565b9150509250929050565b600081519050919050565b600082825260208201905092915050565b6000819050602082019050919050565b611de181611a8a565b82525050565b608082016000820151611dfd6000850182611dd8565b506020820151611e106020850182611cb8565b506040820151611e236040850182611cc7565b506060820151611e366060850182611cb8565b50505050565b6000611e488383611de7565b60808301905092915050565b6000602082019050919050565b6000611e6c82611dac565b611e768185611db7565b9350611e8183611dc8565b8060005b83811015611eb2578151611e998882611e3c565b9750611ea483611e54565b925050600181019050611e85565b5085935050505092915050565b60006020820190508181036000830152611ed98184611e61565b905092915050565b600082825260208201905092915050565b7f42657420616d6f756e74206d7573742062652067726561746572207468616e2060008201527f3000000000000000000000000000000000000000000000000000000000000000602082015250565b6000611f4e602183611ee1565b9150611f5982611ef2565b604082019050919050565b60006020820190508181036000830152611f7d81611f41565b9050919050565b7f526f756e6420616c726561647920656e64656400000000000000000000000000600082015250565b6000611fba601383611ee1565b9150611fc582611f84565b602082019050919050565b60006020820190508181036000830152611fe981611fad565b9050919050565b7f526f756e6420616c72656164792066696e616c697a6564000000000000000000600082015250565b6000612026601783611ee1565b915061203182611ff0565b602082019050919050565b6000602082019050818103600083015261205581612019565b9050919050565b7f4e487b7100000000000000000000000000000000000000000000000000000000600052601160045260246000fd5b600061209682611a07565b91506120a183611a07565b92508282019050808211156120b9576120b861205c565b5b92915050565b60006080820190506120d46000830187611b5f565b6120e16020830186611af5565b6120ee6040830185611af5565b6120fb6060830184611b6e565b95945050505050565b60006040820190506121196000830185611af5565b6121266020830184611b6e565b9392505050565b7f496e73756666696369656e7420706f6f6c2062616c616e636500000000000000600082015250565b6000612163601983611ee1565b915061216e8261212d565b602082019050919050565b6000602082019050818103600083015261219281612156565b9050919050565b7f496e73756666696369656e7420636f6e74726163742062616c616e6365000000600082015250565b60006121cf601d83611ee1565b91506121da82612199565b602082019050919050565b600060208201905081810360008301526121fe816121c2565b9050919050565b600061221082611a07565b915061221b83611a07565b92508282039050818111156122335761223261205c565b5b92915050565b7f4e6f207265776172647320746f20636c61696d00000000000000000000000000600082015250565b600061226f601383611ee1565b915061227a82612239565b602082019050919050565b6000602082019050818103600083015261229e81612262565b9050919050565b60006040820190506122ba6000830185611b5f565b6122c76020830184611af5565b9392505050565b600069ffffffffffffffffffff82169050919050565b6122ed816122ce565b81146122f857600080fd5b50565b60008151905061230a816122e4565b92915050565b6000819050919050565b61232381612310565b811461232e57600080fd5b50565b6000815190506123408161231a565b92915050565b60008151905061235581611a11565b92915050565b600080600080600060a086880312156123775761237661199d565b5b6000612385888289016122fb565b955050602061239688828901612331565b94505060406123a788828901612346565b93505060606123b888828901612346565b92505060806123c9888289016122fb565b9150509295509295909350565b7f496e76616c696420707269636520666565640000000000000000000000000000600082015250565b600061240c601283611ee1565b9150612417826123d6565b602082019050919050565b6000602082019050818103600083015261243b816123ff565b9050919050565b7f5072696365206665656420746f6f206f6c640000000000000000000000000000600082015250565b6000612478601283611ee1565b915061248382612442565b602082019050919050565b600060208201905081810360008301526124a78161246b565b9050919050565b7f43757272656e7420726f756e64206e6f742066696e6973686564000000000000600082015250565b60006124e4601a83611ee1565b91506124ef826124ae565b602082019050919050565b60006020820190508181036000830152612513816124d7565b9050919050565b7f43757272656e7420726f756e6420616c72656164792066696e616c697a656400600082015250565b6000612550601f83611ee1565b915061255b8261251a565b602082019050919050565b6000602082019050818103600083015261257f81612543565b9050919050565b600060808201905061259b6000830187611af5565b6125a86020830186611af5565b6125b56040830185611af5565b6125c26060830184611b6e565b95945050505050565b60006125d682611a07565b91507fffffffffffffffffffffffffffffffffffffffffffffffffffffffffffffffff82036126085761260761205c565b5b600182019050919050565b60006060820190506126286000830186611af5565b6126356020830185611af5565b6126426040830184611af5565b949350505050565b7f416d6f756e74206d7573742062652067726561746572207468616e2030000000600082015250565b6000612680601d83611ee1565b915061268b8261264a565b602082019050919050565b600060208201905081810360008301526126af81612673565b9050919050565b7f4e487b7100000000000000000000000000000000000000000000000000000000600052603260045260246000fd5b7f4e487b7100000000000000000000000000000000000000000000000000000000600052604160045260246000fd5b600061271f82611a07565b915061272a83611a07565b925082820261273881611a07565b9150828204841483151761274f5761274e61205c565b5b5092915050565b7f4e487b7100000000000000000000000000000000000000000000000000000000600052601260045260246000fd5b600061279082611a07565b915061279b83611a07565b9250826127ab576127aa612756565b5b82820490509291505056fea2646970667358221220e9a422187336ffe581fa103d059cf517a2760de4d41186e84608ee15575ff27d64736f6c63430008140033",
  "linkReferences": {},
  "deployedLinkReferences": {}
}